:100000000C9463000C94200E0C94470E0C948B00FF
:100010000C948B000C948B000C948B000C948B0034
:100020000C948B000C948B000C948B000C948B0024
:100030000C948B000C948B000C948B000C948B0014
:100040000C940A0D0C948B000C94970E0C94C40E17
:100050000C948B000C948B000C948B000C948B00F4
:100060000C948B000C948B0000000008000201002F
:100070000003040700000000000000000102040863
:100080001020408001020408102001020408102002
:10009000040404040404040402020202020203032E
:1000A00003030303000000002300260029000000D2
:1000B0000000250028002B0000000000240027007D
:1000C0002A001A0EEA0E11241FBECFEFD8E0DEBFC1
:1000D000CDBF12E0A0E0B1E0EAEDFFE102C0059083
:1000E0000D92A63AB107D9F724E6A6EAB2E001C01C
:1000F0001D92AF30B207E1F710E0C3E6D0E004C0D4
:100100002197FE010E94E50FC136D107C9F70E9471
:100110000B0E0C94E20F0C940000E4E10E944201EB
:100120000895E2E10E9442010895EAE00E9442013E
:100130000895E1E00E9442010895E3E00E94420137
:100140000895E7E00E9442010895E5E00E9442011F
:100150000895E0E00E9442010895E2E00E94420119
:100160000895E4E00E9442010895ECE00E944201FB
:100170000895EBE10E9442010895EEE00E944201E1
:100180000895E8E00E9442010895E0E10E944201E2
:100190000895EAE10E9442010895E6E00E944201CA
:1001A0000895E8E10E9442010895E9E00E944201B9
:1001B0000895EBE00E9442010895EDE00E944201A3
:1001C0000895EFE00E9442010895E1E10E9442019A
:1001D0000895E3E10E9442010895E5E10E94420191
:1001E0000895E7E10E9442010895E9E10E94420179
:1001F0000895E6E10E944201089521968A929A921A
:10020000AA92BA92CA92DA92EA92FA920A931A934C
:100210002197E0916901F0916A010080F181E02D60
:10022000C083D1830895C0916B01D0916C01E881A6
:10023000F981C081D181219619910991F990E990B4
:10024000D990C990B990A9909990899021970895D3
:100250002F903F90E7E6F1E0CDB7DEB7EDBFFEBFF0
:100260003F922F9208952F903F90CDBFDEBF3F92D7
:100270002F920895E0E80E9442010895E0E40E9470
:10028000420108952F923F924F925F926F927F9218
:100290002FB62F92CF93DF937E2EF894E09100013A
:1002A000EF5FE0930001E13011F40E942801E0E0EB
:1002B000E0937901E72DE07849F00E946E05F09116
:1002C0007A01F17071F00E9429040BC0E72DEC3126
:1002D00040F4EE0FF0E0E45AFD4F0190F081E02D84
:1002E0000995F0917901EF2FE17059F0F27011F05A
:1002F0000E94FD008F938F2F0E9473038F910E94A5
:10030000130120910001215020930001222311F4B8
:100310000E943301DF91CF912F902FBE7F906F907D
:100320005F904F903F902F900895FC014081FB011A
:100330003081842F8F7090E0B0E0A0E0B695A79553
:100340009795879580549D4FFC018081242F281B11
:1003500021704E70242B832F8F7090E0B0E0A0E0CE
:10036000B695A7959795879580549D4FFC01808100
:10037000932F981B91703E70932B41E050E029170A
:1003800010F050E040E0CA010895AF92BF92CF92C2
:10039000DF92EF92FF920F931F93CF93DF938C0125
:1003A000CA01DB016A017B01F694E794D794C794F4
:1003B00082309105A105B10580F0880F991FE801F1
:1003C000C80FD91F5601AA0CBB1CA00EB11EBE013E
:1003D000C5010E949501892B59F4DF91CF911F919E
:1003E0000F91FF90EF90DF90CF90BF90AF90089566
:1003F00098818981F5012081318139832883908317
:100400008183D701C601D0CF4F925F926F927F92C6
:100410008F929F92AF92BF92CF92DF92EF92FF9214
:10042000CF93DF9300D000D000D0CDB7DEB78D835F
:100430009E836A017B01AD81BE818C91282F30E0C3
:1004400050E040E029833A834B835C8346015701A7
:10045000880C991CAA1CBB1C29813A814B815C81A8
:10046000281539054A055B05A8F426960FB6F894B9
:10047000DEBF0FBECDBFDF91CF91FF90EF90DF9039
:10048000CF90BF90AF909F908F907F906F905F9034
:100490004F900895240135013FEF431A530A630A30
:1004A000730A89819A81AB81BC8184159505A60563
:1004B000B70590F0B201660F771FAD81BE816A0F5C
:1004C0007B1FC401880F991F8A0F9B1F0E949501F3
:1004D000892B11F0530142013401660C771CED8128
:1004E000FE816E0E7F1ECC0CDD1CCE0EDF1EB30116
:1004F000C6010E949501892B09F4B7CFD6019C91C2
:1005000011968C911197F301208131812D933C93A9
:10051000908381837501640199CFEDE7F3E4408115
:100520004F5F408350E070E060E0E82FEE0FFF0B7C
:10053000E35FFD4F0190F081E02D238530E0F9016C
:10054000E054FD4F908191509083FA01EE0FFF1F10
:10055000E358FC4B220F331F9170922B90838183C1
:100560008DE793E40C94C501EDE7F3E440814F5F20
:10057000408350E070E060E0FA01EE0FFF1FE358A7
:10058000FC4BA82FAA0FBB0BAB5FBD4F0D90BC91CE
:10059000A02D13969C91908381838DE793E40C9416
:1005A000C501CF93DF93EDE7F3E480819FEF980FD0
:1005B0009083D281C38190E0880F991F83589C4B10
:1005C000DC018D919C919383828341E050E060E057
:1005D00070E0CF010E9404028D2F9C2FDF91CF91FC
:1005E00008958091710190917201A0917301B09171
:1005F00074018F3F2FEF9207A207B20731F00397E4
:10060000A105B10524F481E0089580E0089582E019
:100610000895CF93DF93880F990BFC01E35FFD4FA3
:100620000190F081E02D0084F185E02D3097E1F01C
:100630002281211119C021E022838B5F9D4FEC01A3
:10064000A881B98113968C9113978183208130E022
:10065000F901E054FD4F808181508083220F331FC8
:100660008170822B13968C93DF91CF910895CF9355
:10067000DF93880F990BFC01E35FFD4F0190F08140
:10068000E02D0084F185E02D309761F0228121304A
:1006900049F412828B5F9D4FEC01A881B981818161
:1006A00013968C93DF91CF9108958091750190916D
:1006B0007601A0917701B09178014091710150913C
:1006C00072016091730170917401481759076A07AC
:1006D0007B0741F0E0916F01F091700121E02483EC
:1006E0000C94B4020895CF93DF93D0E0C0E0882348
:1006F00089F0C0916901D0916A01E0916D01F0919A
:100700006E018481833031F081E0848380917101B6
:100710000E94B402E0916F01F0917001F0936E01BC
:10072000E0936D0180916B0190916C0190936A014F
:100730008093690180917501309176012091770154
:10074000909178018093710130937201209373012D
:100750009093740192E094830E940903CE01DF918B
:10076000CF910895809171010E943703E0916D014E
:10077000F0916E018281882319F085E084830895C9
:1007800014820895CF93DF93282F220F330BF901A2
:10079000EB5FFD4FC081D1819A81235F3D4FD9012D
:1007A000ED91FC912485921780F4911105C095E09C
:1007B0009C8391E090937A010E948D028A818F5FE1
:1007C0008A8380E0DF91CF91089584E0FBCFE82F0A
:1007D000EE0FFF0BEB5FFD4F0190F081E02D1182DA
:1007E00010820C94B90D1F93CF93DF930E94D10216
:1007F000182F892F492F092E000C550B660B770BEC
:10080000409375015093760160937701709378015E
:10081000292F220F330BF901EB5FFD4FC081D181EE
:10082000D0937001C0936F01235F3D4FF901208188
:10083000318130936C0120936B019C81953019F4C8
:100840000E94E7031B8310927A01DF91CF911F91E1
:100850000895E0917501F0917601EE0FFF1FEB5FB7
:10086000FD4F0190F081E02D90917F4383818917A6
:1008700040F40E9455030E94F30383E080937901C2
:10088000089580E0FBCF81E0809379010C94F3031D
:10089000EF92FF920F931F93CF93DF93C1E0D0E0CD
:1008A00001C0CC0F8A95EAF70C2F83E00E94C203A7
:1008B00088E5E82E82E0F82E10E0F70181917F01B3
:1008C000802319F0812F0E94C2031F5F1330A9F704
:1008D00080915702C82339F4DF91CF911F910F9176
:1008E000FF90EF9008958091FA019091FB0121E033
:1008F000FC012687DF91CF911F910F91FF90EF9020
:100900000C94AC040E94690781110E948907E09150
:100910006D01F0916E0180819181892B21F0809190
:1009200071010E9443090C94AE080E94690781116D
:100930000E948907E0916D01F0916E0180819181A3
:10094000892B21F0809171010E9443090C94990830
:1009500081E08093A6020895CF92DF92EF92FF92FA
:100960000F931F93CF93DF93FC01A081B1810D9072
:10097000BC91A02D54968D919C915597009709F4A8
:1009800045C0428553856485758530E020E0EC01E3
:10099000CA84DB84EC84FD844C155D056E057F05FF
:1009A00008F049C08C011383028335832483011529
:1009B000110519F0E801FD83EC832115310509F4D7
:1009C00044C0E901FB83EA835696CD91DC915797A9
:1009D0000A851B852C853D855096CD90DD90ED9048
:1009E000FC9053970C151D052E053F0598F5C41670
:1009F000D506E606F70628F0401751076207730789
:100A000088F45796FC93EE9356970CC05596FC933A
:100A1000EE9354975796FC93EE9356971582148253
:100A200013821282DF91CF911F910F91FF90EF906F
:100A3000DF90CF900895EC010A811B819C01011584
:100A4000110509F4B0CFC801A2CF5596FC93EE93DF
:100A50005497BACFC416D506E606F70618F7CCCFDA
:100A6000CF93DF93FC01A081B1810D90BC91A02DAB
:100A7000C281D38154968D919C9155978E179F0773
:100A800021F45596DC93CE93549756968D919C9174
:100A900057978E179F0721F45796DC93CE9356975E
:100AA000209721F0848195819D838C830480F5813A
:100AB000E02D309711F0D383C28356968D919C918F
:100AC0005797892B41F454968D919C915597579641
:100AD0009C938E935697DF91CF910895EF92FF925A
:100AE0000F931F93CF93DF93EC018091A60288238D
:100AF00009F4A8C08C859D85AE85BF850196A11D92
:100B0000B11D8C879D87AE87BF87488159816A81D7
:100B10007B8184179507A607B70709F093C08889DA
:100B20009989AA89BB890196A11DB11D4C815D815E
:100B30006E817F81481759076A077B0718F480E0A8
:100B400090E0DC01888B998BAA8BBB8B1C861D8661
:100B50001E861F860E891F890115110509F472C0B2
:100B6000F8014285538564857585481759076A07DA
:100B70007B0709F067C09F010280F381E02D309769
:100B800049F0428553856485758584179507A607C6
:100B9000B70789F3D80114968D919C91009729F09D
:100BA000DC011396FC93EE931297309711F0958326
:100BB00084838C899D890817190711F4FD8BEC8BB0
:100BC000309709F446C0FF8BEE8BF9011382128235
:100BD0007801D80112960D911C911397ED91FC911B
:100BE0000280F381E02DC7010995F7018681978185
:100BF000A085B1850097A105B10581F14285538596
:100C000064857585840F951FA61FB71F4C815D8174
:100C10006E817F81481759076A077B0740F440952A
:100C2000509560957095840F951FA61FB71FF7010B
:100C300082879387A487B587C7010E94AC040115FA
:100C4000110531F6DF91CF911F910F91FF90EF9039
:100C500008958C899D899F8B8E8BB7CF1686EFCF99
:100C6000FC0182810C94C203EF92FF920F931F93B9
:100C7000CF93DF937C018B01FB01C285D385CB0130
:100C80000A960E943D079C018DE021153105D9F09F
:100C9000F8019585D701822F232F980F392F381B04
:100CA0001316C4F0F80185859881981B9883998163
:100CB000890F89839485891708F019828A8188238E
:100CC00011F01A828CE0DF91CF911F910F91FF906C
:100CD000EF900895E82FF22F81918D938E2F2F2F73
:100CE000DDCF382F292FCA01009749F0DA01ED91A5
:100CF000FC91309721F0AB01632F722F099481E0B2
:100D0000089581E00895FF920F931F93CF93DF938F
:100D1000062FF72EDC011296CD91DC91209711F46D
:100D200010E018C0EC81FD81602F7F2DCE01099568
:100D3000182F81110DC088819981009721F40A80B4
:100D4000DB81C02DEBCFDC01ED91FC910995F7CF54
:100D50008E30A9F380E00E94FD06812FDF91CF91B4
:100D60001F910F91FF900895CF92DF92EF92FF9223
:100D70000F931F93CF93DF93EC018B01EA84FB84E5
:100D8000C888D98848855985C6010E94710688237C
:100D900091F1CE010A960E9403079C01892B31F143
:100DA0008D85082E000C990BF801B601181619064E
:100DB0007CF0F70180819D85890F808380E0DF9141
:100DC000CF911F910F91FF90EF90DF90CF900895FA
:100DD0004191DB014D93BD01AF0141505109DA0151
:100DE0004C91D9014D939D010197E0CF81E0D7014E
:100DF00012968C93E3CF8EE0E2CF80917A0181113D
:100E00000C9429040895CF92DF92EF92FF92CF9332
:100E1000DF93FC01C081D1818881682F70E042811D
:100E2000A42FB0E09D01261B370B8381082E000CF8
:100E3000990B28173907F4F0898124813581860FB1
:100E4000972F911D50E070E060E06C01092E000CBE
:100E5000EE08FF08C416D506E606F70610F08A1B52
:100E60009B0B820F931FDF91CF91FF90EF90DF904C
:100E7000CF90089590E080E0F6CFFC01A081B18191
:100E80008C91882341F011968C9124813581820FB9
:100E9000932F911D089590E080E008950E946907C6
:100EA000809168010895809368010E9448040E941F
:100EB000A8040C9443040C94B80DCF93C82F0E943F
:100EC000F102811102C00E94010E8C2FCF910C946F
:100ED00091002091B3022130D1F04091AB025091AA
:100EE000AC026091AD027091AE028091AF02909120
:100EF000B002A091B102B091B202842B952BA62B27
:100F0000B72B21E0892B8A2B8B2B09F420E0822F31
:100F100008951092B3021092AF021092B002109294
:100F2000B1021092B2021092AB021092AC02109277
:100F3000AD021092AE028091A7029091A802A091FA
:100F4000A902B091AA028093B4029093B502A09333
:100F5000B602B093B70208950E94040E8091B402C5
:100F60009091B502A091B602B091B7020196A11D71
:100F7000B11D8093B4029093B502A093B602B093D2
:100F8000B7028091AF029091B002A091B102B091EE
:100F9000B2020196A11DB11D8093AF029093B002E1
:100FA000A093B102B093B20208958091AF029091E4
:100FB000B002A091B102B091B2020097A105B105B3
:100FC00069F14091B4025091B5026091B6027091FE
:100FD000B70241505109610971094093B40250931D
:100FE000B5026093B6027093B7020197A109B109E7
:100FF0008093AF029093B002A093B102B093B2027B
:101000008091B4029091B502A091B602B091B7025E
:10101000892B8A2B8B2B11F40C94020E089580914E
:10102000AF029091B002A091B102B091B202409192
:10103000AB025091AC026091AD027091AE02842B74
:10104000952BA62BB72B892B8A2B8B2B29F40E944F
:10105000040E81E08093B30208958091B302882347
:1010600021F01092B3020C94020E08950E94080E13
:101070008091B4029091B502A091B602B091B702EE
:101080000196A11DB11D8093B4029093B502A09367
:10109000B602B093B7028091AB029091AC02A091DE
:1010A000AD02B091AE020196A11DB11D8093AB02BD
:1010B0009093AC02A093AD02B093AE0208958091DC
:1010C000AB029091AC02A091AD02B091AE0200973C
:1010D000A105B10569F14091B4025091B50260914A
:1010E000B6027091B70241505109610971094093EC
:1010F000B4025093B5026093B6027093B7020197A1
:10110000A109B1098093AB029093AC02A093AD0208
:10111000B093AE028091B4029091B502A091B60254
:10112000B091B702892B8A2B8B2B11F40C94060EED
:1011300008950E946907811183E10895CF93C82F14
:101140000E9469078C2F0E94C203C82F80917A01E8
:1011500081110E9429048C2FCF910895CF930E9472
:101160006907C82F8111C3E1E0916D01F0916E0113
:101170008281815082830E94B20381E08093790151
:101180000E94F3038C2FCF910895CF93C82F0E9414
:101190006907E0916D01F0916E0182818150828337
:1011A0008C2F0E94C203C82F81110AC00E94B20373
:1011B00081E0809379010E94F3038C2FCF910895F1
:1011C000E0916D01F0916E0182818F5F8283F5CF96
:1011D000CF930E946907C82F8111C3E180917101EB
:1011E0000E9437030E94290480917101909172013D
:1011F000A0917301B09174014091750150917601F5
:10120000609177017091780184179507A607B70759
:1012100011F40E9409038C2FCF910895CF93DF938F
:10122000EC010E946907811183E1409171015091A5
:101230007201609173017091740143305105610531
:10124000710524F44883DF91CF9108959091BF01F7
:101250009883F9CF0F931F93CF93C82F8B010E94D0
:101260006907811183E1EC2FEE0FFF0BEB5FFD4F60
:101270000190F081E02D94819370F8019083CF91DB
:101280001F910F910895E82FEE0FFF0BEB5FFD4FBD
:10129000A081B181ED91FC911197309789F01D9259
:1012A0001C928091BF01DF010380F481E02D129632
:1012B0008C93129714961C921E921397309799F75D
:1012C0000895CF93C82F0E946907811183E1EC2F05
:1012D000F0E0EE0FFF1FE35BFD4F0190F081E02D8A
:1012E000909171019283A0916D01B0916E012D9149
:1012F0003C911197348323831196FC93EE931396BC
:101300009C911397918320819695921768F430E011
:10131000F901E054FD4F908191509083220F331FCB
:101320009170922B13969C93CF910895CF93DF9356
:10133000C82F0E946907D82F8111D3E1EC2FF0E06C
:10134000EE0FFF1FE35BFD4F0190F081E02DA091B8
:101350006D01B0916E01818113968C9313978381F7
:1013600094818D939C93148213828091BF01828318
:101370000E9429048D2FDF91CF910895DC01ED911A
:10138000FC9184819581DC01ED91FC9109941F937E
:10139000CF93DF93182FEB010E946907811183E13E
:1013A000E12FF0E0EE0FFF1FE650FE4F0190F081BD
:1013B000E02D0190F081E02D0190F081E02D408141
:1013C0005181628173814C835D836E837F8344810D
:1013D000558166817781488359836A837B83408501
:1013E000518562857385488759876A877B87DF9136
:1013F000CF911F9108958F929F92AF92BF92CF92FB
:10140000DF92EF92FF920F931F93CF93C82F8B0120
:101410000E946907811183E1EC2FF0E0EE0FFF1FBE
:10142000E650FE4F0190F081E02D9685913081F5D8
:1014300042855385648575850190F081E02D01908A
:10144000F081E02DC088D188E288F3884C155D05D5
:101450006E057F0540F484809580A680B780480D96
:10146000591D6A1D7B1D4C195D096E097F09F80124
:101470004083518362837383CF911F910F91FF90BB
:10148000EF90DF90CF90BF90AF909F908F90089596
:1014900085E0F2CFAF92BF92CF92DF92EF92FF92B0
:1014A0000F931F93CF93DF93A82E6A017B01B22E77
:1014B000D32F0E946907C82F8111C3E1EA2DF0E004
:1014C000EE0FFF1FE650FE4F0190F081E02D868564
:1014D00081113CC0A081B1810D90BC91A02D50968E
:1014E0004D915D916D917C915397C40ED51EE61E72
:1014F000F71E14968D919D910D90BC91A02D8C1589
:101500009D05AE05BF0548F4C81AD90AEA0AFB0AC8
:1015100081E0C81AD108E108F108C286D386E486C2
:10152000F58606831783B086D18781E08687CF0151
:101530000E94AC048C2FDF91CF911F910F91FF90EF
:10154000EF90DF90CF90BF90AF900895C7E0F2CFBB
:10155000AF92BF92CF92DF92EF92FF920F931F93C1
:10156000CF93DF93C82F5A016B0179010E9469075D
:10157000D82F8111D3E1EC2FF0E0EE0FFF1FE650E2
:10158000FE4F0190F081E02D8685811119C0A28661
:10159000B386C486D58606831783E086F18681E00C
:1015A0008687CF010E94AC048D2FDF91CF911F91D0
:1015B0000F91FF90EF90DF90CF90BF90AF90089584
:1015C000D7E0F2CF0F931F93CF93DF93C82F0E94E2
:1015D0006907D82F8111D3E1EC2FF0E0EE0FFF1F48
:1015E000E650FE4F00811181F8018685813059F463
:1015F000C8010E943005F80116868D2FDF91CF912A
:101600001F910F910895D5E0F8CFCF93DF93FC01A0
:10161000EE0FFF1FE453FE4F0190F081E02D858512
:10162000882371F0C285D385CF010A960E943D07B9
:10163000892B41F08A8181118CE0DF91CF9108954F
:101640008AE0FBCF8DE0F9CF880F991FFC01E054B1
:10165000FE4F80819181DC01ED91FC9109949B0109
:10166000FC01EE0FFF1FE453FE4F60817181DB012F
:101670001696ED91FC91C9010994FC01EE0FFF1F34
:10168000E054FE4F80819181DC01ED91FC9170E08E
:1016900060E0099580E0089590E080E0089561E0C1
:1016A0008DE00E94770C60E08CE00C94770CEF9258
:1016B000FF921F93CF93DF9300D0CDB7DEB783E0C7
:1016C000E82EF12CFA82E982BE016F5F7F4F809194
:1016D0005502909156020E94F100811138C01A8182
:1016E0008981912F0E944C0B9C01812F85958595B6
:1016F0008595912F990F990B892BD1F081E08093DB
:10170000BD023093BF022093BE028091BE02909131
:10171000BF02A901481B590BCA0157FF03C091958D
:101720008195910984369105D4F41A82198206C0F4
:101730008091BD028111E9CFFA82E982BE016F5F1B
:101740007F4F80914F02909150020E94ED000F90C8
:101750000F90DF91CF911F91FF90EF9008958456E5
:1017600091098436910528F482E090E09A83898378
:10177000E5CF81E090E0FACFCF93DF9300D0CDB7F3
:10178000DEB783E090E09A838983BE016F5F7F4F6D
:1017900080915302909154020E94F10081110AC07D
:1017A00089819A818230910549F15CF4009781F03A
:1017B000019781F00E94B9000F900F90DF91CF91B7
:1017C000089561E00397B1F78DE00E94B30CF2CF6A
:1017D00060E0FACF8091BB029091BC02049754F371
:1017E0006091BA0281E068276093BA028DE00E949E
:1017F000B30C1092BC021092BB02DCCF6091BA0213
:1018000081E068276093BA02DFCF0F931F93CF93D5
:10181000DF9300D0CDB7DEB71A82198280E00E9434
:101820009C0D8C018CE00E94E10C9C01892B59F0ED
:101830008091B8029091B90201969093B902809379
:10184000B8021A8309838091B8029091B9020A976D
:101850006CF0322F2227330F330F330F202B312B15
:101860003A8329831092B9021092B802BE016F5FC9
:101870007F4F80915102909152020E94ED000E9490
:10188000B9000F900F90DF91CF911F910F910895A4
:101890008DE991E00C943A010895843099F038F480
:1018A0008230C1F0833041F0813081F0089587307B
:1018B000A1F08830C1F00895809180008F778093E7
:1018C00080000895809180008F7DF9CF84B58F7757
:1018D00084BD089584B58F7DFBCF8091B0008F7754
:1018E0008093B00008958091B0008F7DF9CFCF93A1
:1018F000DF9390E0FC01E458FF4F249180579F4F05
:10190000FC0184918823C9F090E0880F991FFC01A5
:10191000E854FF4FA591B491FC01E255FF4FC591EA
:10192000D49161110DC09FB7F8948C9120958223BA
:101930008C938881282328839FBFDF91CF910895BE
:10194000623051F49FB7F8943C91822F80958323A5
:101950008C93E8812E2BEFCF8FB7F894EC912E2B40
:101960002C938FBFEACF1F93CF93DF93162F282F8F
:1019700030E0F901E859FF4F8491F901E458FF4F35
:10198000D491F901E057FF4FC491CC23A1F081110C
:101990000E944D0CEC2FF0E0EE0FFF1FE255FF4FC1
:1019A000A591B4918FB7F894EC91111108C0D0951E
:1019B000DE23DC938FBFDF91CF911F910895DE2B43
:1019C000F8CFCF93DF93282F30E0F901E859FF4F8C
:1019D0008491F901E458FF4FD491F901E057FF4F8A
:1019E000C491CC23A1F081110E944D0CEC2FF0E0AA
:1019F000EE0FFF1FEC55FF4FA591B491EC91ED2335
:101A000081E090E009F480E0DF91CF91089580E0DB
:101A100090E0FACF1F920F920FB60F9211242F93DE
:101A20003F934F935F936F937F938F939F93AF9366
:101A3000BF93EF93FF938091D1029091D202A09136
:101A4000D302B091D4023091D00223E0230F2D377E
:101A500098F50196A11DB11D2093D0028093D1026B
:101A60009093D202A093D302B093D4028091D50276
:101A70009091D602A091D702B091D8020196A11DF3
:101A8000B11D8093D5029093D602A093D702B09354
:101A9000D8020E94480CFF91EF91BF91AF919F91A6
:101AA0008F917F916F915F914F913F912F910F9007
:101AB0000FBE0F901F90189526E8230F0296A11DC8
:101AC000B11DCACF84B5826084BD84B5816084BDF8
:101AD00085B5826085BD85B5816085BDEEE6F0E0A7
:101AE000808181608083E1E8F0E010828081826003
:101AF0008083808181608083E0E8F0E08081816084
:101B00008083E1EBF0E0808184608083E0EBF0E0B3
:101B1000808181608083EAE7F0E080818460808357
:101B20008081826080838081816080838081806801
:101B300080831092C10008958E3008F08E5020915D
:101B4000BA0190E4299F900111248770822B809321
:101B50007C0080917A00806480937A0080917A0082
:101B600086FDFCCF80917800909179000895FFCF99
:101B7000FFCFCF93DF93E82FEE0FFF0BE35FFD4F17
:101B8000A081B1811496ED91FC9115973197129631
:101B90008D919C911397E80FF91F1D968C911D97BD
:101BA000EF012197823051F581EB90E0808398839B
:101BB00016969C91169717968C911797EF0122977E
:101BC0009883219788832197CF010A9718822197BC
:101BD0008C179D07D9F720E8EC012883EF012B979C
:101BE000779718822197EC17FD07D9F70D90BC91D4
:101BF000A02DED93FC93DF91CF9108958DEC90E0B3
:101C0000D5CF089578940895F89408957894089518
:101C1000F894089508950E94620D0E940A0E0E9491
:101C20004C0C0E944F0B8091D9020E945D0790E0FE
:101C300080E0089580915B028093D9020895089511
:101C40001F920F920FB60F9211242F933F934F9331
:101C50005F936F937F938F939F93AF93BF93EF9314
:101C6000FF93E091BB01F091BC010995FF91EF91C9
:101C7000BF91AF919F918F917F916F915F914F91A4
:101C80003F912F910F900FBE0F901F9018951F92AC
:101C90000F920FB60F9211242F933F934F935F93A0
:101CA0006F937F938F939F93AF93BF93EF93FF9324
:101CB000E091BD01F091BE010995FF91EF91BF91B7
:101CC000AF919F918F917F916F915F914F913F91D4
:101CD0002F910F900FBE0F901F901895CF92DF920B
:101CE000EF92FF920F931F93CF93DF937C016A01D2
:101CF00010E000E00C151D0581F0EB01D701ED911E
:101D0000FC910190F081E02D6991C7010995892B23
:101D100021F00F5F1F4FBE01EDCFC801DF91CF91C2
:101D20001F910F91FF90EF90DF90CF9008952F9328
:101D30002FB72F938F939F93EF93FF93E091EA0236
:101D4000F091EB028081E091F002F091F10282FDCE
:101D500019C090818091F3028F5F8F732091F402FC
:101D6000821741F0E091F302F0E0E652FD4F958FCB
:101D70008093F302FF91EF919F918F912F912FBF4D
:101D80002F9118958081F6CF1F920F920FB60F9268
:101D900011242F933F934F935F936F937F938F9370
:101DA0009F93AF93BF93EF93FF938AED92E00E94CE
:101DB000530FFF91EF91BF91AF919F918F917F91C1
:101DC0006F915F914F913F912F910F900FBE0F90A8
:101DD0001F901895EAEDF2E01382128288EE93E0EC
:101DE000A0E0B0E084839583A683B78388E992E07E
:101DF0009183808385EC90E09587848784EC90E0E4
:101E00009787868780EC90E0918B808B81EC90E0C7
:101E1000938B828B82EC90E0958B848B86EC90E0A8
:101E2000978B868B118E128E138E148E0895FC0163
:101E3000818D228D90E0805C9F4F821B91098F7372
:101E400099270895FC01918D828D981731F0828D2C
:101E5000E80FF11D858D90E008958FEF9FEF0895B5
:101E6000FC01918D828D981761F0A28DAE0FBF2F6E
:101E7000B11D5D968C91928D9F5F9F73928F90E0C4
:101E800008958FEF9FEF0895FC01538D448D252F0A
:101E900030E0842F90E0821B930B541710F0CF9604
:101EA000089501970895FC01A48DA80FB92FB11DC5
:101EB000A35ABF4F2C91848D90E001968F73992780
:101EC000848FA689B7892C93A089B1898C9183705E
:101ED00080648C93938D848D981306C00288F38957
:101EE000E02D80818F7D80830895CF93DF93EC0177
:101EF000888D8823B9F0AA89BB89E889F9898C91F2
:101F000085FD03C0808186FD0DC00FB607FCF7CFAD
:101F10008C9185FFF2CF808185FFEDCFCE010E94AD
:101F2000530FE9CFDF91CF910895EF92FF920F9376
:101F30001F93CF93DF93EC01F62E81E0888F9B8D6A
:101F40008C8D98131AC0E889F989808185FF15C0A6
:101F50009FB7F894EE89FF896083E889F9898081C9
:101F60008370806480839FBF81E090E0DF91CF9198
:101F70001F910F91FF90EF9008950B8D10E00F5F70
:101F80001F4F0F731127E02E8C8D8E110CC00FB6D2
:101F900007FCFACFE889F989808185FFF5CFCE016A
:101FA0000E94530FF1CFEB8DEC0FFD2FF11DE35A83
:101FB000FF4FF0829FB7F8940B8FEA89FB898081ED
:101FC0008062D0CFF8940C94EB0FEE0FFF1F0590BA
:0A1FD000F491E02D0994F894FFCF7E
:101FDA0000000000000000000000000000000000F7
:101FEA0000000000000000000000000000000000E7
:101FFA0000000000000000000000000000000000D7
:10200A0000000000000000000000000000000000C6
:10201A0000000000000000000000000000000000B6
:10202A0000000000000000000000000000000000A6
:10203A000000000000000000FF00003F020000CB8B
:10204A0002FFFFFFFFFFFFFFFF000081068106FC82
:10205A000100000000F4010000F401000002000089
:10206A00000304000000020000000001000100005B
:10207A0000FFFF0000010000000000000000000057
:10208A0000000000000400FF0000011F0E1F0EFFE9
:10209A00C801C4018306D0018306E501E501D00128
:1020AA00E2010000B40634067B01C5021E02F143B8
:1020BA007703300600F7010000B40634067D01C834
:1020CA000214028D4379033006017F019D01BE0986
:1020DA000202300601980193018E01CB02310223DC
:1020EA000215023F0289437B230020050C000002EF
:1020FA000301007B437B030020570B000001020110
:10210A00008B430F440020BC0B0000000101008734
:10211A0043A1435000B70D000003000100B50101BF
:10212A000000000100000001000001005F082D0806
:10213A0036080F089504AC078204D507E808960903
:10214A005B07C7099E08FB09C5084A0A0E09A80ABF
:10215A005307E20A4E07240B050B2F0B61093D0BAF
:10216A002A09AE0800000000950F6E0E440F750F85
:06217A00170F300F220FC9
:00000001FF
