:100000000C9463000C945A0E0C94810E0C948B008B
:100010000C948B000C948B000C948B000C948B0034
:100020000C948B000C948B000C948B000C948B0024
:100030000C948B000C948B000C948B000C948B0014
:100040000C94440D0C948B000C94BD0F0C94EA0F8F
:100050000C948B000C948B000C948B000C948B00F4
:100060000C948B000C948B0000000008000201002F
:100070000003040700000000000000000102040863
:100080001020408001020408102001020408102002
:10009000040404040404040402020202020203032E
:1000A00003030303000000002300260029000000D2
:1000B0000000250028002B0000000000240027007D
:1000C0002A00540E101011241FBECFEFD8E0DEBF5F
:1000D000CDBF13E0A0E0B1E0EEE2F3E202C0059094
:1000E0000D92A030B107D9F725E0A0E0B3E001C040
:1000F0001D92A83EB207E1F710E0C3E6D0E004C0CD
:100100002197FE010E948F11C136D107C9F70E94C5
:10011000450E0C946A110C940000E4E10E94420127
:100120000895E2E10E9442010895EAE00E9442013E
:100130000895E1E00E9442010895E3E00E94420137
:100140000895E7E00E9442010895E5E00E9442011F
:100150000895E0E00E9442010895E2E00E94420119
:100160000895E4E00E9442010895ECE00E944201FB
:100170000895EBE10E9442010895EEE00E944201E1
:100180000895E8E00E9442010895E0E10E944201E2
:100190000895EAE10E9442010895E6E00E944201CA
:1001A0000895E8E10E9442010895E9E00E944201B9
:1001B0000895EBE00E9442010895EDE00E944201A3
:1001C0000895EFE00E9442010895E1E10E9442019A
:1001D0000895E3E10E9442010895E5E10E94420191
:1001E0000895E7E10E9442010895E9E10E94420179
:1001F0000895E6E10E944201089521968A929A921A
:10020000AA92BA92CA92DA92EA92FA920A931A934C
:100210002197E0916901F0916A010080F181E02D60
:10022000C083D1830895C0916B01D0916C01E881A6
:10023000F981C081D181219619910991F990E990B4
:10024000D990C990B990A9909990899021970895D3
:100250002F903F90E7E6F1E0CDB7DEB7EDBFFEBFF0
:100260003F922F9208952F903F90CDBFDEBF3F92D7
:100270002F920895E0E80E9442010895E0E40E9470
:10028000420108952F923F924F925F926F927F9218
:100290002FB62F92CF93DF937E2EF894E09100013A
:1002A000EF5FE0930001E13011F40E942801E0E0EB
:1002B000E0937901E72DE07849F00E947D05F09107
:1002C0007A01F17071F00E9433040BC0E72DEC311C
:1002D00040F4EE0FF0E0ED54FD4F0190F081E02D81
:1002E0000995F0917901EF2FE17059F0F27011F05A
:1002F0000E94FD008F938F2F0E947D038F910E949B
:10030000130120910001215020930001222311F4B8
:100310000E943301DF91CF912F902FBE7F906F907D
:100320005F904F903F902F900895FC014081FB011A
:100330003081842F8F7090E0B0E0A0E022E0B6958D
:10034000A795979587952A95D1F7865E9C4FFC01D6
:100350008081242F281B23704C70242B832F8F70B7
:1003600090E0B0E0A0E042E0B695A795979587951C
:100370004A95D1F7865E9C4FFC018081932F981B94
:1003800093703C70932B41E050E0291710F050E03F
:1003900040E0CA010895AF92BF92CF92DF92EF92F0
:1003A000FF920F931F93CF93DF938C01CA01DB0160
:1003B0006A017B01F694E794D794C7948230910543
:1003C000A105B10580F0880F991FE801C80FD91F5A
:1003D0005601AA0CBB1CA00EB11EBE01C5010E9495
:1003E0009501892B59F4DF91CF911F910F91FF90C7
:1003F000EF90DF90CF90BF90AF9008959881898162
:10040000F501208131813983288390838183D7014D
:10041000C601D0CF4F925F926F927F928F929F9240
:10042000AF92BF92CF92DF92EF92FF92CF93DF9382
:1004300000D000D000D0CDB7DEB78D839E836A0197
:100440007B01AD81BE818C91282F30E050E040E0EF
:1004500029833A834B835C8346015701880C991C9E
:10046000AA1CBB1C29813A814B815C812815390566
:100470004A055B05A8F426960FB6F894DEBF0FBEBA
:10048000CDBFDF91CF91FF90EF90DF90CF90BF90E5
:10049000AF909F908F907F906F905F904F90089556
:1004A000240135013FEF431A530A630A730A898115
:1004B0009A81AB81BC8184159505A605B70590F09E
:1004C000B201660F771FAD81BE816A0F7B1FC40129
:1004D000880F991F8A0F9B1F0E949501892B11F08D
:1004E000530142013401660C771CED81FE816E0ED2
:1004F0007F1ECC0CDD1CCE0EDF1EB301C6010E9498
:100500009501892B09F4B7CFD6019C9111968C9156
:100510001197F301208131812D933C939083818346
:100520007501640199CFE6EDF4E040814F5F4083AF
:1005300050E070E060E0E82FEE0FFF0BEE59FD4F4A
:100540000190F081E02D238530E0F901E65EFC4F5B
:10055000908191509083FA01EE0FFF1FEA52FB4FFA
:10056000220F331F220F331F9370922B90838183AE
:1005700086ED94E00C94CB01E6EDF4E040814F5F12
:10058000408350E070E060E0FA01EE0FFF1FEA5296
:10059000FB4FA82FAA0FBB0BA65ABD4F0D90BC91C5
:1005A000A02D13969C919083818386ED94E00C940A
:1005B000CB01CF93DF93E6EDF4E080819FEF980FBE
:1005C0009083D281C38190E0880F991F8A529B4FFC
:1005D000DC018D919C919383828341E050E060E047
:1005E00070E0CF010E940A028D2F9C2FDF91CF91E6
:1005F00008958091710190917201A0917301B09161
:1006000074018F3F2FEF9207A207B20731F00397D3
:10061000A105B10524F481E0089580E0089582E009
:100620000895CF93DF93880F990BFC01EE59FD4F8E
:100630000190F081E02D0084F185E02D3097F1F0FC
:10064000228121111BC021E02283865A9D4FEC019B
:10065000A881B98113968C9113978183208130E012
:10066000F901E65EFC4F808181508083220F331FA9
:10067000220F331F8370822B13968C93DF91CF91BF
:100680000895CF93DF93880F990BFC01EE59FD4F2E
:100690000190F081E02D0084F185E02D309761F02C
:1006A0002281213049F41282865A9D4FEC01A881A3
:1006B000B981818113968C93DF91CF9108958091B8
:1006C000750190917601A0917701B09178014091E8
:1006D000710150917201609173017091740148171A
:1006E00059076A077B0741F0E0916F01F0917001B3
:1006F00021E024830C94BC020895CF93DF93D0E0D3
:10070000C0E0882389F0C0916901D0916A01E0912D
:100710006D01F0916E018481833031F081E084833A
:10072000809171010E94BC02E0916F01F091700113
:10073000F0936E01E0936D0180916B0190916C01DB
:1007400090936A01809369018091750130917601DF
:10075000209177019091780180937101309372011B
:10076000209373019093740192E094830E9411038B
:10077000CE01DF91CF910895809171010E944103D4
:10078000E0916D01F0916E018281882319F085E07E
:100790008483089514820895CF93DF93282F220F26
:1007A000330BF901E65AFD4FC081D1819A812E5950
:1007B0003D4FD901ED91FC912485921780F4911160
:1007C00005C095E09C8391E090937A010E9493028A
:1007D0008A818F5F8A8380E0DF91CF91089584E0E2
:1007E000FBCFE82FEE0FFF0BE65AFD4F0190F08193
:1007F000E02D118210820C94F30D1F93CF93DF93A1
:100800000E94D902182F892F492F092E000C550B51
:10081000660B770B409375015093760160937701D7
:1008200070937801292F220F330BF901E65AFD4FFF
:10083000C081D181D0937001C0936F012E593D4F7B
:10084000F9012081318130936C0120936B019C81EF
:10085000953019F40E94F1031B8310927A01DF9105
:10086000CF911F910895E0917501F0917601EE0FFF
:10087000FF1FE65AFD4F0190F081E02D9091D804C2
:100880008381891740F40E945F030E94FD0383E087
:1008900080937901089580E0FBCF81E08093790116
:1008A0000C94FD03EF92FF920F931F93CF93DF936E
:1008B000C1E001C0CC0F8A95EAF783E00E94CC0327
:1008C0000FEA12E0D0E0F80181918F018C2319F03A
:1008D0008D2F0E94CC03DF5FD330A9F79CEAE92E6D
:1008E00092E0F92E10E000E0D1E0F70181917F0164
:1008F0008C2359F0F801EE0FFF1FE75CFD4F80815C
:100900009181FC01D6870E94BB040F5F1F4F03300B
:10091000110559F7DF91CF911F910F91FF90EF9043
:1009200008950E94780781110E949807E0916D0157
:10093000F0916E0180819181892B21F0809171016C
:100940000E9452090C94BD080E94780781110E94F0
:100950009807E0916D01F0916E0180819181892B62
:1009600021F0809171010E9452090C94A80881E045
:10097000809300030895CF92DF92EF92FF920F933E
:100980001F93CF93DF93FC01A081B1810D90BC91A7
:10099000A02D54968D919C915597009709F445C0D0
:1009A000428553856485758530E020E0EC01CA847A
:1009B000DB84EC84FD844C155D056E057F0508F035
:1009C00049C08C01138302833583248301151105EB
:1009D00019F0E801FD83EC832115310509F444C0C9
:1009E000E901FB83EA835696CD91DC9157970A85FE
:1009F0001B852C853D855096CD90DD90ED90FC902B
:100A000053970C151D052E053F0598F5C416D50600
:100A1000E606F70628F0401751076207730788F4C7
:100A20005796FC93EE9356970CC05596FC93EE9315
:100A300054975796FC93EE9356971582148213821F
:100A40001282DF91CF911F910F91FF90EF90DF9075
:100A5000CF900895EC010A811B819C0101151105BD
:100A600009F4B0CFC801A2CF5596FC93EE935497EA
:100A7000BACFC416D506E606F70618F7CCCFCF9343
:100A8000DF93FC01A081B1810D90BC91A02DC281AA
:100A9000D38154968D919C9155978E179F0721F481
:100AA0005596DC93CE93549756968D919C9157977B
:100AB0008E179F0721F45796DC93CE935697209775
:100AC00021F0848195819D838C830480F581E02DC4
:100AD000309711F0D383C28356968D919C9157978E
:100AE000892B41F454968D919C91559757969C93E0
:100AF0008E935697DF91CF910895EF92FF920F93C7
:100B00001F93CF93DF93EC0180910003882309F4B6
:100B1000A8C08C859D85AE85BF850196A11DB11DA0
:100B20008C879D87AE87BF87488159816A817B8189
:100B300084179507A607B70709F093C08889998994
:100B4000AA89BB890196A11DB11D4C815D816E8171
:100B50007F81481759076A077B0718F480E090E007
:100B6000DC01888B998BAA8BBB8B1C861D861E860D
:100B70001F860E891F890115110509F472C0F8013D
:100B80004285538564857585481759076A077B0731
:100B900009F067C09F010280F381E02D309749F092
:100BA000428553856485758584179507A607B70721
:100BB00089F3D80114968D919C91009729F0DC015E
:100BC0001396FC93EE931297309711F095838483DC
:100BD0008C899D890817190711F4FD8BEC8B3097D0
:100BE00009F446C0FF8BEE8BF90113821282780163
:100BF000D80112960D911C911397ED91FC910280F2
:100C0000F381E02DC7010995F70186819781A085C1
:100C1000B1850097A105B10581F1428553856485B1
:100C20007585840F951FA61FB71F4C815D816E814E
:100C30007F81481759076A077B0740F44095509514
:100C400060957095840F951FA61FB71FF7018287C7
:100C50009387A487B587C7010E94BB0401151105BE
:100C600031F6DF91CF911F910F91FF90EF90089592
:100C70008C899D899F8B8E8BB7CF1686EFCFFC0119
:100C800082810C94CC03EF92FF920F931F93CF932A
:100C9000DF937C018B01FB01C285D385CB010A96D2
:100CA0000E944C079C018DE021153105D9F0F80117
:100CB0009585D701822F232F980F392F381B1316B4
:100CC000C4F0F80185859881981B98839981890FD4
:100CD00089839485891708F019828A81882311F005
:100CE0001A828CE0DF91CF911F910F91FF90EF90CE
:100CF0000895E82FF22F81918D938E2F2F2FDDCF26
:100D0000382F292FCA01009749F0DA01ED91FC91A3
:100D1000309721F0AB01632F722F099481E0089581
:100D200081E00895FF920F931F93CF93DF93062FD7
:100D3000F72EDC011296CD91DC91209711F410E092
:100D400018C0EC81FD81602F7F2DCE010995182FF1
:100D500081110DC088819981009721F40A80DB817F
:100D6000C02DEBCFDC01ED91FC910995F7CF8E30D2
:100D7000A9F380E00E940C07812FDF91CF911F9192
:100D80000F91FF900895CF92DF92EF92FF920F9311
:100D90001F93CF93DF93EC018B01EA84FB84C88817
:100DA000D98848855985C6010E948006882391F11B
:100DB000CE010A960E9412079C01892B31F18D8584
:100DC000082E000C990BF801B601181619067CF0D4
:100DD000F70180819D85890F808380E0DF91CF912D
:100DE0001F910F91FF90EF90DF90CF900895419168
:100DF000DB014D93BD01AF0141505109DA014C9126
:100E0000D9014D939D010197E0CF81E0D701129662
:100E10008C93E3CF8EE0E2CF80917A0181110C9424
:100E200033040895CF92DF92EF92FF92CF93DF9336
:100E3000FC01C081D1818881682F70E04281A42F9C
:100E4000B0E09D01261B370B8381082E000C990B07
:100E500028173907F4F0898124813581860F972F6F
:100E6000911D50E070E060E06C01092E000CEE086E
:100E7000FF08C416D506E606F70610F08A1B9B0B82
:100E8000820F931FDF91CF91FF90EF90DF90CF9073
:100E9000089590E080E0F6CFFC01A081B1818C91B3
:100EA000882341F011968C9124813581820F932FF4
:100EB000911D089590E080E008950E947807809148
:100EC00068010895809368010E9452040E94B7044B
:100ED0000C944D040C94F20DCF93C82F0E94F9028C
:100EE000811102C00E943B0E8C2FCF910C94910077
:100EF00020910D032130D1F040910503509106035C
:100F000060910703709108038091090390910A038F
:100F1000A0910B03B0910C03842B952BA62BB72B20
:100F200021E0892B8A2B8B2B09F420E0822F089556
:100F300010920D031092090310920A0310920B03F2
:100F400010920C03109205031092060310920703EF
:100F5000109208038091010390910203A091030372
:100F6000B091040380930E0390930F03A09310039A
:100F7000B093110308950E943E0E80910E0390914C
:100F80000F03A0911003B09111030196A11DB11D93
:100F900080930E0390930F03A0931003B09311035B
:100FA0008091090390910A03A0910B03B0910C0367
:100FB0000196A11DB11D8093090390930A03A0938C
:100FC0000B03B0930C0308958091090390910A03D9
:100FD000A0910B03B0910C030097A105B10569F135
:100FE00040910E0350910F03609110037091110313
:100FF000415051096109710940930E0350930F0349
:1010000060931003709311030197A109B1098093B4
:10101000090390930A03A0930B03B0930C038091F0
:101020000E0390910F03A0911003B0911103892B2F
:101030008A2B8B2B11F40C943C0E0895809109039C
:1010400090910A03A0910B03B0910C03409105030A
:10105000509106036091070370910803842B952B30
:10106000A62BB72B892B8A2B8B2B29F40E943E0EA3
:1010700081E080930D03089580910D03882321F072
:1010800010920D030C943C0E08950E94420E809124
:101090000E0390910F03A0911003B09111030196DC
:1010A000A11DB11D80930E0390930F03A093100315
:1010B000B09311038091050390910603A09107035B
:1010C000B09108030196A11DB11D80930503909373
:1010D0000603A0930703B0930803089580910503C6
:1010E00090910603A0910703B09108030097A10512
:1010F000B10569F140910E0350910F036091100307
:1011000070911103415051096109710940930E0317
:1011100050930F0360931003709311030197A1097B
:10112000B1098093050390930603A0930703B0933E
:10113000080380910E0390910F03A0911003B091CA
:101140001103892B8A2B8B2B11F40C94400E0895DC
:101150000E947807811183E10895CF93C82F0E94E0
:1011600078078C2F0E94CC03C82F80917A018111BF
:101170000E9433048C2FCF910895CF930E9478075B
:10118000C82F8111C3E1E0916D01F0916E01828160
:10119000815082830E94BC0381E0809379010E9488
:1011A000FD038C2FCF910895CF93C82F0E9478070D
:1011B000E0916D01F0916E018281815082838C2FCC
:1011C0000E94CC03C82F81110AC00E94BC0381E099
:1011D000809379010E94FD038C2FCF910895E091B7
:1011E0006D01F0916E0182818F5F8283F5CFCF9385
:1011F0000E947807C82F8111C3E1809171010E947C
:1012000041030E9433048091710190917201A09179
:101210007301B09174014091750150917601609114
:1012200077017091780184179507A607B70711F425
:101230000E9411038C2FCF910895CF93DF93EC017F
:101240000E947807811183E14091710150917201F0
:10125000609173017091740143305105610571050E
:1012600024F44883DF91CF9108959091DD01988314
:10127000F9CF0F931F93CF93C82F8B010E9478074C
:10128000811183E1EC2FEE0FFF0BE65AFD4F019029
:10129000F081E02D94819370F8019083CF911F919C
:1012A0000F910895E82FEE0FFF0BE65AFD4FA08136
:1012B000B181ED91FC911197309789F01D921C92AC
:1012C0008091DD01DF010380F481E02D12968C9383
:1012D000129714961C921E921397309799F70895BF
:1012E000CF93C82F0E947807811183E1EC2FF0E0A3
:1012F000EE0FFF1FEE55FD4F0190F081E02D909114
:1013000071019283A0916D01B0916E012D913C917C
:101310001197348323831196FC93EE9313969C913B
:1013200013979183208196959695921778F430E0E3
:10133000F901E65EFC4F908191509083220F331F9C
:10134000220F331F9370922B13969C93CF91089585
:10135000CF93DF93C82F0E947807D82F8111D3E154
:10136000EC2FF0E0EE0FFF1FEE55FD4F0190F081E6
:10137000E02DA0916D01B0916E01818113968C9347
:101380001397838194818D939C931482138280910F
:10139000DD0182830E9433048D2FDF91CF91089568
:1013A000DC01ED91FC9184819581DC01ED91FC9152
:1013B00009941F93CF93DF93182FEB010E947807B6
:1013C000811183E1E12FF0E0EE0FFF1FE75CFD4F9D
:1013D0000190F081E02D0190F081E02D0190F081ED
:1013E000E02D40815181628173814C835D836E83E6
:1013F0007F834481558166817781488359836A83DD
:101400007B834085518562857385488759876A87C4
:101410007B87DF91CF911F9108958F929F92AF921A
:10142000BF92CF92DF92EF92FF920F931F93CF93D1
:10143000C82F8B010E947807811183E1EC2FF0E027
:10144000EE0FFF1FE75CFD4F0190F081E02D9685C8
:10145000913081F542855385648575850190F081D1
:10146000E02D0190F081E02DC088D188E288F388DA
:101470004C155D056E057F0540F484809580A6803F
:10148000B780480D591D6A1D7B1D4C195D096E09F9
:101490007F09F8014083518362837383CF911F9149
:1014A0000F91FF90EF90DF90CF90BF90AF909F9003
:1014B0008F90089585E0F2CFAF92BF92CF92DF92E6
:1014C000EF92FF920F931F93CF93DF93A82E6A01A1
:1014D0007B01B22ED32F0E947807C82F8111C3E160
:1014E000EA2DF0E0EE0FFF1FE75CFD4F0190F08169
:1014F000E02D868581113CC0A081B1810D90BC9109
:10150000A02D50964D915D916D917C915397C40E95
:10151000D51EE61EF71E14968D919D910D90BC91DF
:10152000A02D8C159D05AE05BF0548F4C81AD90A33
:10153000EA0AFB0A81E0C81AD108E108F108C2866C
:10154000D386E486F58606831783B086D18781E04B
:101550008687CF010E94BB048C2FDF91CF911F9112
:101560000F91FF90EF90DF90CF90BF90AF900895D4
:10157000C7E0F2CFAF92BF92CF92DF92EF92FF928D
:101580000F931F93CF93DF93C82F5A016B017901FB
:101590000E947807D82F8111D3E1EC2FF0E0EE0FF5
:1015A000FF1FE75CFD4F0190F081E02D86858111E2
:1015B00019C0A286B386C486D58606831783E086C3
:1015C000F18681E08687CF010E94BB048D2FDF91D9
:1015D000CF911F910F91FF90EF90DF90CF90BF9030
:1015E000AF900895D7E0F2CF0F931F93CF93DF937F
:1015F000C82F0E947807D82F8111D3E1EC2FF0E09B
:10160000EE0FFF1FE75CFD4F00811181F801868519
:10161000813059F4C8010E943F05F80116868D2FCC
:10162000DF91CF911F910F910895D5E0F8CFCF931F
:10163000DF93FC01EE0FFF1FEF5EFD4F0190F08185
:10164000E02D8585882371F0C285D385CF010A9668
:101650000E944C07892B41F08A8181118CE0DF9137
:10166000CF9108958AE0FBCF8DE0F9CF880F991FC5
:10167000FC01EB5FFD4F80819181DC01ED91FC91DC
:1016800009949B01FC01EE0FFF1FEF5EFD4F60818F
:101690007181DB011696ED91FC91C9010994FC0161
:1016A000EE0FFF1FEB5FFD4F80819181DC01ED911B
:1016B000FC9170E060E0099580E0089590E080E0A2
:1016C000089526E040E855E260E070E083E393E0AF
:1016D0000E9408116EED71E083E393E00E94EC0E2E
:1016E00061E08DE00E94B10C62E08CE00C94B10CE2
:1016F000EF92FF921F93CF93DF9300D0CDB7DEB769
:1017000083E0E82EF12CFA82E982BE016F5F7F4F01
:101710008091AA029091AB020E94F10081113EC01B
:1017200062EE71E083E393E00E94EC0E1A818981FE
:10173000912F0E945E0B9C01812F85958595859543
:10174000912F990F990B892BD1F081E0809317038A
:101750003093190320931803809118039091190373
:10176000A901481B590BCA0157FF03C091958195E8
:10177000910984369105E4F41A82198206C0809199
:1017800017038111E9CFFA82E982BE016F5F7F4FB3
:101790008091A4029091A5020E94ED000E94B900E0
:1017A0000F900F90DF91CF911F91FF90EF900895D0
:1017B000845691098436910528F482E090E09A835A
:1017C0008983E3CF81E090E0FACFCF93DF9300D01D
:1017D000CDB7DEB782E090E09A838983BE016F5F68
:1017E0007F4F8091A8029091A9020E94F100898107
:1017F0009A8182309105A9F124F5009749F101976A
:1018000049F164EF71E083E393E00E94EC0E609194
:101810001503709116034AE050E083E393E00E94C1
:10182000A90F8091150390911603019690931603CA
:10183000809315030E94B9000F900F90DF91CF9114
:10184000089561E00397E9F68DE00E94ED0CD9CF91
:1018500060E0FACF6091140381E06827609314037D
:10186000F3CF8091150390911603049754F2609181
:10187000140381E06827609314038DE00E94ED0C4F
:101880001092160310921503BCCF0F931F93CF93A2
:10189000DF9300D0CDB7DEB71A82198280E00E94B4
:1018A000D60D8C018CE00E941B0D892B21F58091B7
:1018B00012039091130301969093130380931203E4
:1018C0000A973CF018601A83098310921303109250
:1018D0001203BE016F5F7F4F8091A6029091A70215
:1018E0000E94ED000E94B9000F900F90DF91CF9100
:1018F0001F910F91089510921303109212031A83EF
:101900000983E7CF8BEB91E00C943A010895843082
:1019100099F038F48230C1F0833041F0813081F0A9
:1019200008958730A1F08830C1F00895809180003B
:101930008F77809380000895809180008F7DF9CF0C
:1019400084B58F7784BD089584B58F7DFBCF80915A
:10195000B0008F778093B00008958091B0008F7DA4
:10196000F9CFCF93DF9390E0FC01E458FF4F24912F
:1019700080579F4FFC0184918823C9F090E0880F25
:10198000991FFC01E854FF4FA591B491FC01E25569
:10199000FF4FC591D49161110DC09FB7F8948C9100
:1019A000209582238C938881282328839FBFDF91F1
:1019B000CF910895623051F49FB7F8943C91822FF3
:1019C000809583238C93E8812E2BEFCF8FB7F894EB
:1019D000EC912E2B2C938FBFEACF1F93CF93DF93E5
:1019E000162F282F30E0F901E859FF4F8491F901B3
:1019F000E458FF4FD491F901E057FF4FC491CC2335
:101A0000A1F081110E94870CEC2FF0E0EE0FFF1F78
:101A1000E255FF4FA591B4918FB7F894EC91111155
:101A200008C0D095DE23DC938FBFDF91CF911F914B
:101A30000895DE2BF8CFCF93DF93282F30E0F90104
:101A4000E859FF4F8491F901E458FF4FD491F9010F
:101A5000E057FF4FC491CC23A1F081110E94870C65
:101A6000EC2FF0E0EE0FFF1FEC55FF4FA591B49166
:101A7000EC91ED2381E090E009F480E0DF91CF91DB
:101A8000089580E090E0FACF1F920F920FB60F9268
:101A900011242F933F934F935F936F937F938F9373
:101AA0009F93AF93BF93EF93FF9380912A039091FD
:101AB0002B03A0912C03B0912D033091290323E037
:101AC000230F2D3798F50196A11DB11D20932903F1
:101AD00080932A0390932B03A0932C03B0932D03A0
:101AE00080912E0390912F03A0913003B091310388
:101AF0000196A11DB11D80932E0390932F03A093F7
:101B00003003B09331030E94820CFF91EF91BF919B
:101B1000AF919F918F917F916F915F914F913F9185
:101B20002F910F900FBE0F901F90189526E8230F4E
:101B30000296A11DB11DCACF84B5826084BD84B553
:101B4000816084BD85B5826085BD85B5816085BDB8
:101B5000EEE6F0E0808181608083E1E8F0E01082D1
:101B6000808182608083808181608083E0E8F0E012
:101B7000808181608083E1EBF0E0808184608083FC
:101B8000E0EBF0E0808181608083EAE7F0E0808133
:101B90008460808380818260808380818160808393
:101BA0008081806880831092C10008958E3008F093
:101BB0008E502091D80190E4299F900111248770C4
:101BC000822B80937C0080917A00806480937A00DD
:101BD00080917A0086FDFCCF809178009091790009
:101BE0000895FFCFFFCFCF93DF93E82FEE0FFF0BCA
:101BF000EE59FD4FA081B1811496ED91FC9115979E
:101C0000319712968D919C911397E80FF91F1D96AD
:101C10008C911D97EF012197823051F581EB90E077
:101C20008083988316969C91169717968C91179798
:101C3000EF0122979883219788832197CF010A97F4
:101C4000188221978C179D07D9F720E8EC0128838B
:101C5000EF012B97779718822197EC17FD07D9F79B
:101C60000D90BC91A02DED93FC93DF91CF91089541
:101C70008DEC90E0D5CF089578940895F894089568
:101C800078940895F894089508950E949C0D0E94F8
:101C9000440E0E94860C0E94610B809132030E94C8
:101CA0006C0790E080E008958091B2028093320347
:101CB000089508951F920F920FB60F9211242F933B
:101CC0003F934F935F936F937F938F939F93AF93C4
:101CD000BF93EF93FF93E091D901F091DA01099559
:101CE000FF91EF91BF91AF919F918F917F916F91F4
:101CF0005F914F913F912F910F900FBE0F901F90CA
:101D000018951F920F920FB60F9211242F933F93A5
:101D10004F935F936F937F938F939F93AF93BF93F3
:101D2000EF93FF93E091DB01F091DC010995FF91C6
:101D3000EF91BF91AF919F918F917F916F915F9143
:101D40004F913F912F910F900FBE0F901F901895BC
:101D5000CF92DF92EF92FF920F931F93CF93DF9377
:101D60007C016A0110E000E00C151D0581F0EB011B
:101D7000D701ED91FC910190F081E02D6991C701AF
:101D80000995892B21F00F5F1F4FBE01EDCFC801D0
:101D9000DF91CF911F910F91FF90EF90DF90CF9047
:101DA0000895CF93DF93EC01DB01AB2B81F0FB01B6
:101DB00001900020E9F73197AF01461B570BE881EE
:101DC000F9810280F381E02DDF91CF91099490E0B9
:101DD00080E0DF91CF9108950C94D10EDC01ED915C
:101DE000FC910190F081E02D09946BEE72E00C946F
:101DF000D10E6F927F928F929F92AF92BF92CF92AD
:101E0000DF92EF92FF920F931F93CF93DF93CDB7A3
:101E1000DEB7A1970FB6F894DEBF0FBECDBF3C0171
:101E2000142F052F962E872E19A2223008F42AE0AF
:101E30005E0181E2A80EB11CC22ED12CF12CE12C46
:101E4000612F702F892D982DA70196010E946D1189
:101E5000812F902FA92DB82D122F032F942E852E70
:101E60006A3014F5605DF50162935F018C159D0584
:101E7000AE05BF0528F7BF01C3010E94D10EA19690
:101E80000FB6F894DEBF0FBECDBFDF91CF911F918B
:101E90000F91FF90EF90DF90CF90BF90AF909F9009
:101EA0008F907F906F900895695CDDCFCF92DF9225
:101EB000EF92FF920F931F93CF93DF93EC016A0190
:101EC0007B01C901892B81F4E881F9810190F081BE
:101ED000E02D642FCE01DF91CF911F910F91FF90E4
:101EE000EF90DF90CF9009942A303105F1F42AE089
:101EF000F7FE1BC06DE2CE010E94EE0E8C0144275E
:101F00005527BA014C195D096E097F092AE0CE01F7
:101F10000E94F90E800F911FDF91CF911F910F91B9
:101F2000FF90EF90DF90CF900895B701A601CE010A
:101F3000DF91CF911F910F91FF90EF90DF90CF90A5
:101F40000C94F90E9A01AB01770F660B770B0C948A
:101F5000560F0F931F93CF93DF93D82FC92F0E9453
:101F6000A20F8C018D2F9C2F0E94F50E800F911FC8
:101F7000DF91CF911F910F9108952F932FB72F933A
:101F80008F939F93EF93FF93E0914303F09144036A
:101F90008081E0914903F0914A0382FD19C090814C
:101FA00080914C038F5F8F7320914D03821741F016
:101FB000E0914C03F0E0ED5CFC4F958F80934C0377
:101FC000FF91EF919F918F912F912FBF2F91189596
:101FD0008081F6CF1F920F920FB60F9211242F938C
:101FE0003F934F935F936F937F938F939F93AF93A1
:101FF000BF93EF93FF9383E393E00E947910FF91E7
:10200000EF91BF91AF919F918F917F916F915F9170
:102010004F913F912F910F900FBE0F901F901895E9
:10202000E3E3F3E01382128288EE93E0A0E0B0E0F5
:1020300084839583A683B78382EF92E09183808324
:1020400085EC90E09587848784EC90E0978786877D
:1020500080EC90E0918B808B81EC90E0938B828B75
:1020600082EC90E0958B848B86EC90E0978B868B4E
:10207000118E128E138E148E0895FC01818D228D87
:1020800090E0805C9F4F821B91098F739927089580
:10209000FC01918D828D981731F0828DE80FF11D32
:1020A000858D90E008958FEF9FEF0895FC01918D4D
:1020B000828D981761F0A28DAE0FBF2FB11D5D9676
:1020C0008C91928D9F5F9F73928F90E008958FEF18
:1020D0009FEF0895FC01538D448D252F30E0842F10
:1020E00090E0821B930B541710F0CF960895019740
:1020F0000895FC01A48DA80FB92FB11DA35ABF4F9D
:102100002C91848D90E001968F739927848FA689F6
:10211000B7892C93A089B1898C91837080648C934A
:10212000938D848D981306C00288F389E02D8081F9
:102130008F7D80830895CF93DF93EC01888D882372
:10214000B9F0AA89BB89E889F9898C9185FD03C01A
:10215000808186FD0DC00FB607FCF7CF8C9185FFFF
:10216000F2CF808185FFEDCFCE010E947910E9CFBB
:10217000DF91CF910895EF92FF920F931F93CF932A
:10218000DF93EC01F62E81E0888F9B8D8C8D981368
:102190001AC0E889F989808185FF15C09FB7F89436
:1021A000EE89FF896083E889F98980818370806482
:1021B00080839FBF81E090E0DF91CF911F910F91CD
:1021C000FF90EF9008950B8D10E00F5F1F4F0F737E
:1021D0001127E02E8C8D8E110CC00FB607FCFACFA4
:1021E000E889F989808185FFF5CFCE010E947910B9
:1021F000F1CFEB8DEC0FFD2FF11DE35AFF4FF08275
:102200009FB7F8940B8FEA89FB8980818062D0CFD9
:10221000CF92DF92EF92FF921F93CF93DF93EC0167
:102220006A017B01122FE889F98982E08083C11459
:1022300081EED806E104F104A1F060E079E08DE3DD
:1022400090E0A70196010E946D11215031094109CA
:1022500051095695479537952795211580E13807FF
:1022600098F0E889F989108260E874E88EE190E0DE
:10227000A70196010E946D112150310941095109B0
:102280005695479537952795EC85FD853083EE85E6
:10229000FF852083188EEC89FD891083EA89FB89EC
:1022A000808180618083EA89FB8980818860808366
:1022B000EA89FB89808180688083EA89FB89808143
:1022C0008F7D8083DF91CF911F91FF90EF90DF9002
:1022D000CF900895F8940C949511A1E21A2EAA1BA0
:1022E000BB1BFD010DC0AA1FBB1FEE1FFF1FA217C6
:1022F000B307E407F50720F0A21BB30BE40BF50BC3
:10230000661F771F881F991F1A9469F7609570954B
:10231000809590959B01AC01BD01CF010895EE0F12
:0E232000FF1F0590F491E02D0994F894FFCF73
:10232E00000000000000000000000000000000009F
:10233E00000000000000000000000000000000008F
:10234E00000000000000000000000000000000007F
:10235E00000000000000000000000000000000006F
:10236E00000000000000000000000000000000005F
:10237E00000000000000000000000000000000004F
:10238E000000000000000000FF0000940200002486
:10239E0003FFFFFFFFFFFFFFFF0000900690063FC9
:1023AE000200000000F4010000F4010000024802E7
:1023BE0000000000FA000000BC0200000251020002
:1023CE000000006400000064000000020000000233
:1023DE00000000000200000000010001000000FFEC
:1023EE00FF000001000000000000000000000000DF
:1023FE000000000300FF000001590E590EFF6F6B25
:10240E000A006D6573736167652072656365697631
:10241E0065640A00636F756E7465722066726F6D07
:10242E0020563A20000D0209029206150292062746
:10243E00022702150200000000C30643067B011EA0
:10244E00031E024A05D00300000000C30643067DAA
:10245E000121031402E604D2039D018E017F01BB0C
:10246E0001D00945023F0601BB01D0094E023F06CD
:10247E0000BB01D00957023F0602B601B101AC0103
:10248E002403860278026A029402E2045404800055
:10249E00450C000002020100D404D4038000780B26
:1024AE00000001020100E40468058000E50B000055
:1024BE0000010100E004FA045000F10D00000300D9
:1024CE000100D30101000000010000000101010024
:1024DE000000006E083C0845081E08A404BB0791C6
:1024EE0004E407F708A8096A07D909AD080D0AD44C
:1024FE00085C0A1D09BA0A6207F40A5D07360B1753
:10250E000B410B70094F0B3909BD080D0A00000075
:10251E000000BB10A80E6A109B103D1056104810FC
:00000001FF
